{
  "contractName": "DonationFactory",
  "abi": [
    {
      "inputs": [
        {
          "internalType": "address",
          "name": "_baseToken",
          "type": "address"
        },
        {
          "internalType": "address",
          "name": "_teamWallet",
          "type": "address"
        },
        {
          "internalType": "address",
          "name": "_burningWallet",
          "type": "address"
        },
        {
          "internalType": "address",
          "name": "_rewardWallet",
          "type": "address"
        }
      ],
      "stateMutability": "nonpayable",
      "type": "constructor"
    },
    {
      "anonymous": false,
      "inputs": [
        {
          "indexed": true,
          "internalType": "address",
          "name": "previousOwner",
          "type": "address"
        },
        {
          "indexed": true,
          "internalType": "address",
          "name": "newOwner",
          "type": "address"
        }
      ],
      "name": "OwnershipTransferred",
      "type": "event"
    },
    {
      "anonymous": false,
      "inputs": [
        {
          "indexed": false,
          "internalType": "address",
          "name": "campaginAddress",
          "type": "address"
        }
      ],
      "name": "onCreateCampaign",
      "type": "event"
    },
    {
      "inputs": [],
      "name": "baseToken",
      "outputs": [
        {
          "internalType": "address",
          "name": "",
          "type": "address"
        }
      ],
      "stateMutability": "view",
      "type": "function",
      "constant": true
    },
    {
      "inputs": [],
      "name": "burningWallet",
      "outputs": [
        {
          "internalType": "address",
          "name": "",
          "type": "address"
        }
      ],
      "stateMutability": "view",
      "type": "function",
      "constant": true
    },
    {
      "inputs": [
        {
          "internalType": "uint256",
          "name": "",
          "type": "uint256"
        }
      ],
      "name": "campaigns",
      "outputs": [
        {
          "internalType": "address",
          "name": "",
          "type": "address"
        }
      ],
      "stateMutability": "view",
      "type": "function",
      "constant": true
    },
    {
      "inputs": [],
      "name": "owner",
      "outputs": [
        {
          "internalType": "address",
          "name": "",
          "type": "address"
        }
      ],
      "stateMutability": "view",
      "type": "function",
      "constant": true
    },
    {
      "inputs": [],
      "name": "renounceOwnership",
      "outputs": [],
      "stateMutability": "nonpayable",
      "type": "function"
    },
    {
      "inputs": [],
      "name": "rewardWallet",
      "outputs": [
        {
          "internalType": "address",
          "name": "",
          "type": "address"
        }
      ],
      "stateMutability": "view",
      "type": "function",
      "constant": true
    },
    {
      "inputs": [],
      "name": "teamWallet",
      "outputs": [
        {
          "internalType": "address",
          "name": "",
          "type": "address"
        }
      ],
      "stateMutability": "view",
      "type": "function",
      "constant": true
    },
    {
      "inputs": [
        {
          "internalType": "address",
          "name": "newOwner",
          "type": "address"
        }
      ],
      "name": "transferOwnership",
      "outputs": [],
      "stateMutability": "nonpayable",
      "type": "function"
    },
    {
      "inputs": [
        {
          "internalType": "address",
          "name": "newAddress",
          "type": "address"
        }
      ],
      "name": "changeRewardWallet",
      "outputs": [],
      "stateMutability": "nonpayable",
      "type": "function"
    },
    {
      "inputs": [
        {
          "internalType": "address",
          "name": "newAddress",
          "type": "address"
        }
      ],
      "name": "changeTeamWallet",
      "outputs": [],
      "stateMutability": "nonpayable",
      "type": "function"
    },
    {
      "inputs": [
        {
          "internalType": "address",
          "name": "newAddress",
          "type": "address"
        }
      ],
      "name": "changeBurningWallet",
      "outputs": [],
      "stateMutability": "nonpayable",
      "type": "function"
    },
    {
      "inputs": [
        {
          "internalType": "address",
          "name": "newBaseToken",
          "type": "address"
        }
      ],
      "name": "setBaseToken",
      "outputs": [],
      "stateMutability": "nonpayable",
      "type": "function"
    },
    {
      "inputs": [],
      "name": "createCampaign",
      "outputs": [],
      "stateMutability": "nonpayable",
      "type": "function"
    },
    {
      "inputs": [],
      "name": "totalCampaignsLength",
      "outputs": [
        {
          "internalType": "uint256",
          "name": "",
          "type": "uint256"
        }
      ],
      "stateMutability": "view",
      "type": "function",
      "constant": true
    }
  ],
  "bytecode": "0x60806040523480156200001157600080fd5b506040516200296a3803806200296a8339818101604052810190620000379190620002ad565b620000696200005462000177640100000000026401000000009004565b6200017f640100000000026401000000009004565b83600160006101000a81548173ffffffffffffffffffffffffffffffffffffffff021916908373ffffffffffffffffffffffffffffffffffffffff16021790555080600560006101000a81548173ffffffffffffffffffffffffffffffffffffffff021916908373ffffffffffffffffffffffffffffffffffffffff16021790555081600460006101000a81548173ffffffffffffffffffffffffffffffffffffffff021916908373ffffffffffffffffffffffffffffffffffffffff16021790555082600360006101000a81548173ffffffffffffffffffffffffffffffffffffffff021916908373ffffffffffffffffffffffffffffffffffffffff160217905550505050506200031f565b600033905090565b60008060009054906101000a900473ffffffffffffffffffffffffffffffffffffffff169050816000806101000a81548173ffffffffffffffffffffffffffffffffffffffff021916908373ffffffffffffffffffffffffffffffffffffffff1602179055508173ffffffffffffffffffffffffffffffffffffffff168173ffffffffffffffffffffffffffffffffffffffff167f8be0079c531659141344cd1fd0a4f28419497f9722a3daafe3b4186f6b6457e060405160405180910390a35050565b600080fd5b600073ffffffffffffffffffffffffffffffffffffffff82169050919050565b6000620002758262000248565b9050919050565b620002878162000268565b81146200029357600080fd5b50565b600081519050620002a7816200027c565b92915050565b60008060008060808587031215620002ca57620002c962000243565b5b6000620002da8782880162000296565b9450506020620002ed8782880162000296565b9350506040620003008782880162000296565b9250506060620003138782880162000296565b91505092959194509250565b61263b806200032f6000396000f3fe60806040523480156200001157600080fd5b50600436106200011d576000357c010000000000000000000000000000000000000000000000000000000090048063715018a611620000b6578063b06e1e02116200008c578063b06e1e021462000258578063c55dae631462000278578063f2fde38b146200029a578063fb75b2c714620002ba576200011d565b8063715018a6146200020a5780638da5cb5b1462000216578063abe110b61462000238576200011d565b8063463607a611620000f8578063463607a6146200019a5780635455d22814620001bc5780635992704414620001dc5780636201fe6914620001fe576200011d565b8063141961bc146200012257806316bb6c13146200015857806320131dcc1462000178575b600080fd5b6200014060048036038101906200013a91906200083f565b620002dc565b6040516200014f9190620008b6565b60405180910390f35b62000176600480360381019062000170919062000904565b6200031c565b005b620001826200036a565b604051620001919190620008b6565b60405180910390f35b620001a462000390565b604051620001b3919062000947565b60405180910390f35b620001da6004803603810190620001d4919062000904565b6200039d565b005b620001e6620003eb565b604051620001f59190620008b6565b60405180910390f35b6200020862000411565b005b62000214620004ed565b005b6200022062000505565b6040516200022f9190620008b6565b60405180910390f35b62000256600480360381019062000250919062000904565b6200052e565b005b62000276600480360381019062000270919062000904565b6200057c565b005b62000282620005ca565b604051620002919190620008b6565b60405180910390f35b620002b86004803603810190620002b2919062000904565b620005f0565b005b620002c46200067a565b604051620002d39190620008b6565b60405180910390f35b60028181548110620002ed57600080fd5b906000526020600020016000915054906101000a900473ffffffffffffffffffffffffffffffffffffffff1681565b62000326620006a0565b80600160006101000a81548173ffffffffffffffffffffffffffffffffffffffff021916908373ffffffffffffffffffffffffffffffffffffffff16021790555050565b600460009054906101000a900473ffffffffffffffffffffffffffffffffffffffff1681565b6000600280549050905090565b620003a7620006a0565b80600460006101000a81548173ffffffffffffffffffffffffffffffffffffffff021916908373ffffffffffffffffffffffffffffffffffffffff16021790555050565b600360009054906101000a900473ffffffffffffffffffffffffffffffffffffffff1681565b6000336040516200042290620007f1565b6200042e9190620008b6565b604051809103906000f0801580156200044b573d6000803e3d6000fd5b5090506002819080600181540180825580915050600190039060005260206000200160009091909190916101000a81548173ffffffffffffffffffffffffffffffffffffffff021916908373ffffffffffffffffffffffffffffffffffffffff1602179055507f639cdae9d344e116cb575aad1936433d4a65e793bed4b79fe451b1540d365b8a81604051620004e29190620008b6565b60405180910390a150565b620004f7620006a0565b62000503600062000725565b565b60008060009054906101000a900473ffffffffffffffffffffffffffffffffffffffff16905090565b62000538620006a0565b80600560006101000a81548173ffffffffffffffffffffffffffffffffffffffff021916908373ffffffffffffffffffffffffffffffffffffffff16021790555050565b62000586620006a0565b80600360006101000a81548173ffffffffffffffffffffffffffffffffffffffff021916908373ffffffffffffffffffffffffffffffffffffffff16021790555050565b600160009054906101000a900473ffffffffffffffffffffffffffffffffffffffff1681565b620005fa620006a0565b600073ffffffffffffffffffffffffffffffffffffffff168173ffffffffffffffffffffffffffffffffffffffff16036200066c576040517f08c379a00000000000000000000000000000000000000000000000000000000081526004016200066390620009eb565b60405180910390fd5b620006778162000725565b50565b600560009054906101000a900473ffffffffffffffffffffffffffffffffffffffff1681565b620006aa620007e9565b73ffffffffffffffffffffffffffffffffffffffff16620006ca62000505565b73ffffffffffffffffffffffffffffffffffffffff161462000723576040517f08c379a00000000000000000000000000000000000000000000000000000000081526004016200071a9062000a5d565b60405180910390fd5b565b60008060009054906101000a900473ffffffffffffffffffffffffffffffffffffffff169050816000806101000a81548173ffffffffffffffffffffffffffffffffffffffff021916908373ffffffffffffffffffffffffffffffffffffffff1602179055508173ffffffffffffffffffffffffffffffffffffffff168173ffffffffffffffffffffffffffffffffffffffff167f8be0079c531659141344cd1fd0a4f28419497f9722a3daafe3b4186f6b6457e060405160405180910390a35050565b600033905090565b611b868062000a8083390190565b600080fd5b6000819050919050565b620008198162000804565b81146200082557600080fd5b50565b60008135905062000839816200080e565b92915050565b600060208284031215620008585762000857620007ff565b5b6000620008688482850162000828565b91505092915050565b600073ffffffffffffffffffffffffffffffffffffffff82169050919050565b60006200089e8262000871565b9050919050565b620008b08162000891565b82525050565b6000602082019050620008cd6000830184620008a5565b92915050565b620008de8162000891565b8114620008ea57600080fd5b50565b600081359050620008fe81620008d3565b92915050565b6000602082840312156200091d576200091c620007ff565b5b60006200092d84828501620008ed565b91505092915050565b620009418162000804565b82525050565b60006020820190506200095e600083018462000936565b92915050565b600082825260208201905092915050565b7f4f776e61626c653a206e6577206f776e657220697320746865207a65726f206160008201527f6464726573730000000000000000000000000000000000000000000000000000602082015250565b6000620009d360268362000964565b9150620009e08262000975565b604082019050919050565b6000602082019050818103600083015262000a0681620009c4565b9050919050565b7f4f776e61626c653a2063616c6c6572206973206e6f7420746865206f776e6572600082015250565b600062000a4560208362000964565b915062000a528262000a0d565b602082019050919050565b6000602082019050818103600083015262000a788162000a36565b905091905056fe60e0604052601e6000556032600155604b60025560196003553480156200002557600080fd5b5060405162001b8638038062001b8683398181016040528101906200004b9190620001e7565b3373ffffffffffffffffffffffffffffffffffffffff1660808173ffffffffffffffffffffffffffffffffffffffff168152505060805173ffffffffffffffffffffffffffffffffffffffff1663c55dae636040518163ffffffff167c0100000000000000000000000000000000000000000000000000000000028152600401602060405180830381865afa158015620000e9573d6000803e3d6000fd5b505050506040513d601f19601f820116820180604052508101906200010f9190620001e7565b73ffffffffffffffffffffffffffffffffffffffff1660a08173ffffffffffffffffffffffffffffffffffffffff16815250508073ffffffffffffffffffffffffffffffffffffffff1660c08173ffffffffffffffffffffffffffffffffffffffff16815250505062000219565b600080fd5b600073ffffffffffffffffffffffffffffffffffffffff82169050919050565b6000620001af8262000182565b9050919050565b620001c181620001a2565b8114620001cd57600080fd5b50565b600081519050620001e181620001b6565b92915050565b6000602082840312156200020057620001ff6200017d565b5b60006200021084828501620001d0565b91505092915050565b60805160a05160c0516118db620002ab600039600081816102ac015281816103eb01526109f801526000818161040c015281816104c2015281816107c5015281816108ba015281816109af01528181610a2501528181610b050152610c1f0152600081816102e701528181610580015281816107190152818161080e015281816109030152610bfb01526118db6000f3fe608060405234801561001057600080fd5b5060043610610107576000357c010000000000000000000000000000000000000000000000000000000090048063c45a0155116100a9578063d7c94efd11610083578063d7c94efd14610232578063d9b84ed314610250578063e7b0f6661461026e578063fce589d81461028c57610107565b8063c45a0155146101d8578063c55dae63146101f6578063c5c4744c1461021457610107565b8063166ea31a116100e5578063166ea31a146101645780631df4ccfc14610180578063845c93061461019e5780638b424267146101ba57610107565b806302d05d3f1461010c578063047255111461012a57806309e69ede14610134575b600080fd5b6101146102aa565b604051610121919061109f565b60405180910390f35b6101326102ce565b005b61014e600480360381019061014991906110eb565b61054f565b60405161015b9190611131565b60405180910390f35b61017e60048036038101906101799190611178565b610567565b005b610188610aa7565b6040516101959190611131565b60405180910390f35b6101b860048036038101906101b39190611178565b610aad565b005b6101c2610bf3565b6040516101cf9190611131565b60405180910390f35b6101e0610bf9565b6040516101ed9190611204565b60405180910390f35b6101fe610c1d565b60405161020b9190611240565b60405180910390f35b61021c610c41565b6040516102299190611131565b60405180910390f35b61023a610c47565b6040516102479190611131565b60405180910390f35b610258610c4d565b6040516102659190611276565b60405180910390f35b610276610c60565b6040516102839190611131565b60405180910390f35b610294610c66565b6040516102a19190611131565b60405180910390f35b7f000000000000000000000000000000000000000000000000000000000000000081565b3373ffffffffffffffffffffffffffffffffffffffff167f000000000000000000000000000000000000000000000000000000000000000073ffffffffffffffffffffffffffffffffffffffff16638da5cb5b6040518163ffffffff167c0100000000000000000000000000000000000000000000000000000000028152600401602060405180830381865afa15801561036c573d6000803e3d6000fd5b505050506040513d601f19601f8201168201806040525081019061039091906112a6565b73ffffffffffffffffffffffffffffffffffffffff16146103e6576040517f08c379a00000000000000000000000000000000000000000000000000000000081526004016103dd90611356565b60405180910390fd5b6105067f00000000000000000000000000000000000000000000000000000000000000007f000000000000000000000000000000000000000000000000000000000000000073ffffffffffffffffffffffffffffffffffffffff166370a08231306040518263ffffffff167c010000000000000000000000000000000000000000000000000000000002815260040161047f919061109f565b602060405180830381865afa15801561049c573d6000803e3d6000fd5b505050506040513d601f19601f820116820180604052508101906104c0919061138b565b7f000000000000000000000000000000000000000000000000000000000000000073ffffffffffffffffffffffffffffffffffffffff16610c6c9092919063ffffffff16565b6001600660006101000a81548160ff0219169083151502179055507f42ca2c4ec566d8ab22d269110790fe60486b66ed66a33ec49a620a55392c6d3860405160405180910390a1565b60076020528060005260406000206000915090505481565b3373ffffffffffffffffffffffffffffffffffffffff167f000000000000000000000000000000000000000000000000000000000000000073ffffffffffffffffffffffffffffffffffffffff16638da5cb5b6040518163ffffffff167c0100000000000000000000000000000000000000000000000000000000028152600401602060405180830381865afa158015610605573d6000803e3d6000fd5b505050506040513d601f19601f8201168201806040525081019061062991906112a6565b73ffffffffffffffffffffffffffffffffffffffff161461067f576040517f08c379a000000000000000000000000000000000000000000000000000000000815260040161067690611356565b60405180910390fd5b806005600082825461069191906113e7565b9250508190555060006103e8600054836106ab919061141b565b6106b5919061148c565b905060006103e8600254836106ca919061141b565b6106d4919061148c565b905060006103e8600354846106e9919061141b565b6106f3919061148c565b905060006103e860015485610708919061141b565b610712919061148c565b90506108097f000000000000000000000000000000000000000000000000000000000000000073ffffffffffffffffffffffffffffffffffffffff166320131dcc6040518163ffffffff167c0100000000000000000000000000000000000000000000000000000000028152600401602060405180830381865afa15801561079e573d6000803e3d6000fd5b505050506040513d601f19601f820116820180604052508101906107c291906112a6565b847f000000000000000000000000000000000000000000000000000000000000000073ffffffffffffffffffffffffffffffffffffffff16610c6c9092919063ffffffff16565b6108fe7f000000000000000000000000000000000000000000000000000000000000000073ffffffffffffffffffffffffffffffffffffffff1663fb75b2c76040518163ffffffff167c0100000000000000000000000000000000000000000000000000000000028152600401602060405180830381865afa158015610893573d6000803e3d6000fd5b505050506040513d601f19601f820116820180604052508101906108b791906112a6565b837f000000000000000000000000000000000000000000000000000000000000000073ffffffffffffffffffffffffffffffffffffffff16610c6c9092919063ffffffff16565b6109f37f000000000000000000000000000000000000000000000000000000000000000073ffffffffffffffffffffffffffffffffffffffff1663599270446040518163ffffffff167c0100000000000000000000000000000000000000000000000000000000028152600401602060405180830381865afa158015610988573d6000803e3d6000fd5b505050506040513d601f19601f820116820180604052508101906109ac91906112a6565b827f000000000000000000000000000000000000000000000000000000000000000073ffffffffffffffffffffffffffffffffffffffff16610c6c9092919063ffffffff16565b610a697f00000000000000000000000000000000000000000000000000000000000000008587610a2391906114bd565b7f000000000000000000000000000000000000000000000000000000000000000073ffffffffffffffffffffffffffffffffffffffff16610c6c9092919063ffffffff16565b7ff3a11f695f14d0c88379b0e1ad546f7674a5562b298127edec05b550e861046f85604051610a989190611131565b60405180910390a15050505050565b60005481565b600660009054906101000a900460ff1615610afd576040517f08c379a0000000000000000000000000000000000000000000000000000000008152600401610af49061153d565b60405180910390fd5b610b4a3330837f000000000000000000000000000000000000000000000000000000000000000073ffffffffffffffffffffffffffffffffffffffff16610d0e909392919063ffffffff16565b80600760003373ffffffffffffffffffffffffffffffffffffffff1673ffffffffffffffffffffffffffffffffffffffff1681526020019081526020016000206000828254610b9991906113e7565b925050819055508060046000828254610bb291906113e7565b925050819055507f8e6a741223ff03b7d894d752b0f0f29b6f40f84294733a2d91b111f2baeea6ce81604051610be89190611131565b60405180910390a150565b60035481565b7f000000000000000000000000000000000000000000000000000000000000000081565b7f000000000000000000000000000000000000000000000000000000000000000081565b60045481565b60015481565b600660009054906101000a900460ff1681565b60055481565b60025481565b610d098363a9059cbb7c0100000000000000000000000000000000000000000000000000000000028484604051602401610ca792919061155d565b604051602081830303815290604052907bffffffffffffffffffffffffffffffffffffffffffffffffffffffff19166020820180517bffffffffffffffffffffffffffffffffffffffffffffffffffffffff8381831617835250505050610db3565b505050565b610dad846323b872dd7c010000000000000000000000000000000000000000000000000000000002858585604051602401610d4b93929190611586565b604051602081830303815290604052907bffffffffffffffffffffffffffffffffffffffffffffffffffffffff19166020820180517bffffffffffffffffffffffffffffffffffffffffffffffffffffffff8381831617835250505050610db3565b50505050565b6000610e15826040518060400160405280602081526020017f5361666545524332303a206c6f772d6c6576656c2063616c6c206661696c65648152508573ffffffffffffffffffffffffffffffffffffffff16610e7a9092919063ffffffff16565b9050600081511115610e755780806020019051810190610e3591906115e9565b610e74576040517f08c379a0000000000000000000000000000000000000000000000000000000008152600401610e6b90611688565b60405180910390fd5b5b505050565b6060610e898484600085610e92565b90509392505050565b6060823073ffffffffffffffffffffffffffffffffffffffff16311015610eee576040517f08c379a0000000000000000000000000000000000000000000000000000000008152600401610ee59061171a565b60405180910390fd5b6000808673ffffffffffffffffffffffffffffffffffffffff168587604051610f1791906117ab565b60006040518083038185875af1925050503d8060008114610f54576040519150601f19603f3d011682016040523d82523d6000602084013e610f59565b606091505b5091509150610f6a87838387610f76565b92505050949350505050565b60608315610fd8576000835103610fd057610f9085610feb565b610fcf576040517f08c379a0000000000000000000000000000000000000000000000000000000008152600401610fc69061180e565b60405180910390fd5b5b829050610fe3565b610fe2838361100e565b5b949350505050565b6000808273ffffffffffffffffffffffffffffffffffffffff163b119050919050565b6000825111156110215781518083602001fd5b806040517f08c379a00000000000000000000000000000000000000000000000000000000081526004016110559190611883565b60405180910390fd5b600073ffffffffffffffffffffffffffffffffffffffff82169050919050565b60006110898261105e565b9050919050565b6110998161107e565b82525050565b60006020820190506110b46000830184611090565b92915050565b600080fd5b6110c88161107e565b81146110d357600080fd5b50565b6000813590506110e5816110bf565b92915050565b600060208284031215611101576111006110ba565b5b600061110f848285016110d6565b91505092915050565b6000819050919050565b61112b81611118565b82525050565b60006020820190506111466000830184611122565b92915050565b61115581611118565b811461116057600080fd5b50565b6000813590506111728161114c565b92915050565b60006020828403121561118e5761118d6110ba565b5b600061119c84828501611163565b91505092915050565b6000819050919050565b60006111ca6111c56111c08461105e565b6111a5565b61105e565b9050919050565b60006111dc826111af565b9050919050565b60006111ee826111d1565b9050919050565b6111fe816111e3565b82525050565b600060208201905061121960008301846111f5565b92915050565b600061122a826111d1565b9050919050565b61123a8161121f565b82525050565b60006020820190506112556000830184611231565b92915050565b60008115159050919050565b6112708161125b565b82525050565b600060208201905061128b6000830184611267565b92915050565b6000815190506112a0816110bf565b92915050565b6000602082840312156112bc576112bb6110ba565b5b60006112ca84828501611291565b91505092915050565b600082825260208201905092915050565b7f4f776e61626c653a2063616c6c6572206973206e6f7420746865206f7065726160008201527f746f720000000000000000000000000000000000000000000000000000000000602082015250565b60006113406023836112d3565b915061134b826112e4565b604082019050919050565b6000602082019050818103600083015261136f81611333565b9050919050565b6000815190506113858161114c565b92915050565b6000602082840312156113a1576113a06110ba565b5b60006113af84828501611376565b91505092915050565b7f4e487b7100000000000000000000000000000000000000000000000000000000600052601160045260246000fd5b60006113f282611118565b91506113fd83611118565b9250828201905080821115611415576114146113b8565b5b92915050565b600061142682611118565b915061143183611118565b925082820261143f81611118565b91508282048414831517611456576114556113b8565b5b5092915050565b7f4e487b7100000000000000000000000000000000000000000000000000000000600052601260045260246000fd5b600061149782611118565b91506114a283611118565b9250826114b2576114b161145d565b5b828204905092915050565b60006114c882611118565b91506114d383611118565b92508282039050818111156114eb576114ea6113b8565b5b92915050565b7f46756e647261697365722069732064697361626c656400000000000000000000600082015250565b60006115276016836112d3565b9150611532826114f1565b602082019050919050565b600060208201905081810360008301526115568161151a565b9050919050565b60006040820190506115726000830185611090565b61157f6020830184611122565b9392505050565b600060608201905061159b6000830186611090565b6115a86020830185611090565b6115b56040830184611122565b949350505050565b6115c68161125b565b81146115d157600080fd5b50565b6000815190506115e3816115bd565b92915050565b6000602082840312156115ff576115fe6110ba565b5b600061160d848285016115d4565b91505092915050565b7f5361666545524332303a204552433230206f7065726174696f6e20646964206e60008201527f6f74207375636365656400000000000000000000000000000000000000000000602082015250565b6000611672602a836112d3565b915061167d82611616565b604082019050919050565b600060208201905081810360008301526116a181611665565b9050919050565b7f416464726573733a20696e73756666696369656e742062616c616e636520666f60008201527f722063616c6c0000000000000000000000000000000000000000000000000000602082015250565b60006117046026836112d3565b915061170f826116a8565b604082019050919050565b60006020820190508181036000830152611733816116f7565b9050919050565b600081519050919050565b600081905092915050565b60005b8381101561176e578082015181840152602081019050611753565b60008484015250505050565b60006117858261173a565b61178f8185611745565b935061179f818560208601611750565b80840191505092915050565b60006117b7828461177a565b915081905092915050565b7f416464726573733a2063616c6c20746f206e6f6e2d636f6e7472616374000000600082015250565b60006117f8601d836112d3565b9150611803826117c2565b602082019050919050565b60006020820190508181036000830152611827816117eb565b9050919050565b600081519050919050565b6000601f19601f8301169050919050565b60006118558261182e565b61185f81856112d3565b935061186f818560208601611750565b61187881611839565b840191505092915050565b6000602082019050818103600083015261189d818461184a565b90509291505056fea264697066735822122060079a47626ed0995b276b8e7b71b73ed5e124d800bc05cf8b999491977018b564736f6c63430008130033a2646970667358221220514907cd5c44f3981fa491a7ad8f76f6845bca4bcb30a5a9dc426c1130e0186664736f6c63430008130033",
  "immutableReferences": {},
  "source": "pragma solidity ^0.8.15;\n\nimport \"@openzeppelin/contracts/access/Ownable.sol\";\nimport \"@openzeppelin/contracts/token/ERC20/IERC20.sol\";\nimport \"./Campaign.sol\";\n\ncontract DonationFactory is Ownable {\n    address public baseToken;\n    address[] public campaigns;\n\n    address public teamWallet;\n    address public burningWallet;\n    address public rewardWallet;\n\n\n\n    event onCreateCampaign(address campaginAddress);\n\n    constructor(address _baseToken,\n    address _teamWallet,\n    address _burningWallet,\n    address _rewardWallet\n    ) {\n        baseToken = _baseToken;\n        rewardWallet = _rewardWallet;\n        burningWallet = _burningWallet;\n        teamWallet = _teamWallet;\n    }\n\n\n    function changeRewardWallet(address newAddress) public onlyOwner{\n        rewardWallet = newAddress;\n    }\n\n\n    function changeTeamWallet(address newAddress) public onlyOwner{\n        teamWallet = newAddress;\n    }\n\n    function changeBurningWallet(address newAddress) public onlyOwner{\n        burningWallet = newAddress;\n    }\n\n    function setBaseToken(address newBaseToken) public onlyOwner {\n        baseToken = newBaseToken;\n    }\n\n    function createCampaign() public {\n        Campaigns campaign = new Campaigns(msg.sender);\n        campaigns.push(address(campaign));\n        emit onCreateCampaign(address(campaign));\n    }\n\n    function totalCampaignsLength() public view returns (uint256) {\n        return campaigns.length;\n    }\n}\n",
  "sourcePath": "/Users/shahzeb/Desktop/projects/clients/rao/donation/contracts/contracts/DonationFactory.sol",
  "compiler": {
    "name": "solc",
    "version": "0.8.19+commit.7dd6d404.Emscripten.clang"
  },
  "schemaVersion": "3.4.6",
  "updatedAt": "2023-03-06T10:55:30.028Z",
  "networkType": "ethereum",
  "devdoc": {
    "kind": "dev",
    "methods": {
      "owner()": {
        "details": "Returns the address of the current owner."
      },
      "renounceOwnership()": {
        "details": "Leaves the contract without owner. It will not be possible to call `onlyOwner` functions anymore. Can only be called by the current owner. NOTE: Renouncing ownership will leave the contract without an owner, thereby removing any functionality that is only available to the owner."
      },
      "transferOwnership(address)": {
        "details": "Transfers ownership of the contract to a new account (`newOwner`). Can only be called by the current owner."
      }
    },
    "version": 1
  },
  "userdoc": {
    "kind": "user",
    "methods": {},
    "version": 1
  }
}